{
  "_format": "hh-sol-artifact-1",
  "contractName": "Insurance",
  "sourceName": "contracts/Insurance.sol",
  "abi": [
    {
      "inputs": [],
      "stateMutability": "nonpayable",
      "type": "constructor"
    },
    {
      "anonymous": false,
      "inputs": [
        {
          "indexed": true,
          "internalType": "address",
          "name": "admin",
          "type": "address"
        }
      ],
      "name": "AdminAdded",
      "type": "event"
    },
    {
      "anonymous": false,
      "inputs": [
        {
          "indexed": true,
          "internalType": "address",
          "name": "admin",
          "type": "address"
        }
      ],
      "name": "AdminRemoved",
      "type": "event"
    },
    {
      "anonymous": false,
      "inputs": [
        {
          "indexed": false,
          "internalType": "uint256",
          "name": "claimId",
          "type": "uint256"
        },
        {
          "indexed": false,
          "internalType": "bool",
          "name": "approved",
          "type": "bool"
        }
      ],
      "name": "ClaimResolved",
      "type": "event"
    },
    {
      "anonymous": false,
      "inputs": [
        {
          "indexed": false,
          "internalType": "uint256",
          "name": "claimId",
          "type": "uint256"
        },
        {
          "indexed": false,
          "internalType": "address",
          "name": "policyholder",
          "type": "address"
        },
        {
          "indexed": false,
          "internalType": "uint256",
          "name": "policyId",
          "type": "uint256"
        }
      ],
      "name": "ClaimSubmitted",
      "type": "event"
    },
    {
      "anonymous": false,
      "inputs": [
        {
          "indexed": false,
          "internalType": "uint256",
          "name": "id",
          "type": "uint256"
        },
        {
          "indexed": false,
          "internalType": "string",
          "name": "name",
          "type": "string"
        },
        {
          "indexed": false,
          "internalType": "uint256",
          "name": "premium",
          "type": "uint256"
        },
        {
          "indexed": false,
          "internalType": "uint256",
          "name": "payout",
          "type": "uint256"
        }
      ],
      "name": "PolicyCreated",
      "type": "event"
    },
    {
      "anonymous": false,
      "inputs": [
        {
          "indexed": false,
          "internalType": "uint256",
          "name": "id",
          "type": "uint256"
        },
        {
          "indexed": false,
          "internalType": "string",
          "name": "name",
          "type": "string"
        },
        {
          "indexed": false,
          "internalType": "uint256",
          "name": "premium",
          "type": "uint256"
        },
        {
          "indexed": false,
          "internalType": "uint256",
          "name": "payout",
          "type": "uint256"
        },
        {
          "indexed": false,
          "internalType": "bool",
          "name": "isActive",
          "type": "bool"
        }
      ],
      "name": "PolicyEdited",
      "type": "event"
    },
    {
      "anonymous": false,
      "inputs": [
        {
          "indexed": false,
          "internalType": "address",
          "name": "policyholder",
          "type": "address"
        },
        {
          "indexed": false,
          "internalType": "uint256",
          "name": "policyId",
          "type": "uint256"
        }
      ],
      "name": "PolicyPurchased",
      "type": "event"
    },
    {
      "inputs": [
        {
          "internalType": "address",
          "name": "_newAdmin",
          "type": "address"
        }
      ],
      "name": "addAdmin",
      "outputs": [],
      "stateMutability": "nonpayable",
      "type": "function"
    },
    {
      "inputs": [
        {
          "internalType": "uint256",
          "name": "",
          "type": "uint256"
        }
      ],
      "name": "adminList",
      "outputs": [
        {
          "internalType": "address",
          "name": "",
          "type": "address"
        }
      ],
      "stateMutability": "view",
      "type": "function"
    },
    {
      "inputs": [
        {
          "internalType": "address",
          "name": "",
          "type": "address"
        }
      ],
      "name": "admins",
      "outputs": [
        {
          "internalType": "bool",
          "name": "",
          "type": "bool"
        }
      ],
      "stateMutability": "view",
      "type": "function"
    },
    {
      "inputs": [
        {
          "internalType": "uint256",
          "name": "_policyId",
          "type": "uint256"
        }
      ],
      "name": "buyPolicy",
      "outputs": [],
      "stateMutability": "payable",
      "type": "function"
    },
    {
      "inputs": [],
      "name": "claimCount",
      "outputs": [
        {
          "internalType": "uint256",
          "name": "",
          "type": "uint256"
        }
      ],
      "stateMutability": "view",
      "type": "function"
    },
    {
      "inputs": [
        {
          "internalType": "uint256",
          "name": "",
          "type": "uint256"
        }
      ],
      "name": "claims",
      "outputs": [
        {
          "internalType": "uint256",
          "name": "id",
          "type": "uint256"
        },
        {
          "internalType": "address",
          "name": "policyholder",
          "type": "address"
        },
        {
          "internalType": "uint256",
          "name": "policyId",
          "type": "uint256"
        },
        {
          "internalType": "string",
          "name": "description",
          "type": "string"
        },
        {
          "internalType": "bool",
          "name": "isApproved",
          "type": "bool"
        },
        {
          "internalType": "bool",
          "name": "isResolved",
          "type": "bool"
        },
        {
          "internalType": "string",
          "name": "resolveMessage",
          "type": "string"
        }
      ],
      "stateMutability": "view",
      "type": "function"
    },
    {
      "inputs": [
        {
          "internalType": "string",
          "name": "_name",
          "type": "string"
        },
        {
          "internalType": "uint256",
          "name": "_premium",
          "type": "uint256"
        },
        {
          "internalType": "uint256",
          "name": "_payout",
          "type": "uint256"
        }
      ],
      "name": "createPolicy",
      "outputs": [],
      "stateMutability": "nonpayable",
      "type": "function"
    },
    {
      "inputs": [
        {
          "internalType": "uint256",
          "name": "_id",
          "type": "uint256"
        },
        {
          "internalType": "string",
          "name": "_name",
          "type": "string"
        },
        {
          "internalType": "uint256",
          "name": "_premium",
          "type": "uint256"
        },
        {
          "internalType": "uint256",
          "name": "_payout",
          "type": "uint256"
        },
        {
          "internalType": "bool",
          "name": "_isActive",
          "type": "bool"
        }
      ],
      "name": "editPolicy",
      "outputs": [],
      "stateMutability": "nonpayable",
      "type": "function"
    },
    {
      "inputs": [],
      "name": "getAdmins",
      "outputs": [
        {
          "internalType": "address[]",
          "name": "",
          "type": "address[]"
        }
      ],
      "stateMutability": "view",
      "type": "function"
    },
    {
      "inputs": [
        {
          "internalType": "address",
          "name": "",
          "type": "address"
        },
        {
          "internalType": "uint256",
          "name": "",
          "type": "uint256"
        }
      ],
      "name": "hasPolicy",
      "outputs": [
        {
          "internalType": "bool",
          "name": "",
          "type": "bool"
        }
      ],
      "stateMutability": "view",
      "type": "function"
    },
    {
      "inputs": [
        {
          "internalType": "uint256",
          "name": "",
          "type": "uint256"
        }
      ],
      "name": "policies",
      "outputs": [
        {
          "internalType": "uint256",
          "name": "id",
          "type": "uint256"
        },
        {
          "internalType": "string",
          "name": "name",
          "type": "string"
        },
        {
          "internalType": "uint256",
          "name": "premium",
          "type": "uint256"
        },
        {
          "internalType": "uint256",
          "name": "payout",
          "type": "uint256"
        },
        {
          "internalType": "bool",
          "name": "isActive",
          "type": "bool"
        }
      ],
      "stateMutability": "view",
      "type": "function"
    },
    {
      "inputs": [],
      "name": "policyCount",
      "outputs": [
        {
          "internalType": "uint256",
          "name": "",
          "type": "uint256"
        }
      ],
      "stateMutability": "view",
      "type": "function"
    },
    {
      "inputs": [
        {
          "internalType": "address",
          "name": "_adminToRemove",
          "type": "address"
        }
      ],
      "name": "removeAdmin",
      "outputs": [],
      "stateMutability": "nonpayable",
      "type": "function"
    },
    {
      "inputs": [
        {
          "internalType": "uint256",
          "name": "_claimId",
          "type": "uint256"
        },
        {
          "internalType": "bool",
          "name": "_approve",
          "type": "bool"
        },
        {
          "internalType": "string",
          "name": "_message",
          "type": "string"
        }
      ],
      "name": "resolveClaim",
      "outputs": [],
      "stateMutability": "nonpayable",
      "type": "function"
    },
    {
      "inputs": [
        {
          "internalType": "uint256",
          "name": "_policyId",
          "type": "uint256"
        },
        {
          "internalType": "string",
          "name": "_description",
          "type": "string"
        }
      ],
      "name": "submitClaim",
      "outputs": [],
      "stateMutability": "nonpayable",
      "type": "function"
    },
    {
      "stateMutability": "payable",
      "type": "receive"
    }
  ],
  "bytecode": "0x608060405234801561001057600080fd5b5060016000803373ffffffffffffffffffffffffffffffffffffffff1673ffffffffffffffffffffffffffffffffffffffff16815260200190815260200160002060006101000a81548160ff0219169083151502179055506001339080600181540180825580915050600190039060005260206000200160009091909190916101000a81548173ffffffffffffffffffffffffffffffffffffffff021916908373ffffffffffffffffffffffffffffffffffffffff1602179055503373ffffffffffffffffffffffffffffffffffffffff167f44d6d25963f097ad14f29f06854a01f575648a1ef82f30e562ccd3889717e33960405160405180910390a2612ae98061011d6000396000f3fe6080604052600436106100ec5760003560e01c80638da4d3c91161008a578063e93b2a3411610059578063e93b2a341461030e578063ec0bf04e14610337578063f517f0b114610360578063fa50949614610389576100f3565b80638da4d3c914610234578063a888c2cd1461025f578063d3e89483146102a2578063de54d429146102e3576100f3565b8063429b62e5116100c6578063429b62e51461018957806345b46525146101c657806370480275146101ef57806379c8889414610218576100f3565b806311117fc8146100f85780631785f53c1461013557806331ae450b1461015e576100f3565b366100f357005b600080fd5b34801561010457600080fd5b5061011f600480360381019061011a91906118ac565b6103c6565b60405161012c919061191a565b60405180910390f35b34801561014157600080fd5b5061015c60048036038101906101579190611961565b610405565b005b34801561016a57600080fd5b506101736107f2565b6040516101809190611a4c565b60405180910390f35b34801561019557600080fd5b506101b060048036038101906101ab9190611961565b610880565b6040516101bd9190611a89565b60405180910390f35b3480156101d257600080fd5b506101ed60048036038101906101e89190611bea565b6108a0565b005b3480156101fb57600080fd5b5061021660048036038101906102119190611961565b610ad5565b005b610232600480360381019061022d91906118ac565b610cec565b005b34801561024057600080fd5b50610249610fa7565b6040516102569190611c55565b60405180910390f35b34801561026b57600080fd5b50610286600480360381019061028191906118ac565b610fad565b6040516102999796959493929190611cef565b60405180910390f35b3480156102ae57600080fd5b506102c960048036038101906102c491906118ac565b611139565b6040516102da959493929190611d6c565b60405180910390f35b3480156102ef57600080fd5b506102f8611204565b6040516103059190611c55565b60405180910390f35b34801561031a57600080fd5b5061033560048036038101906103309190611dc6565b61120a565b005b34801561034357600080fd5b5061035e60048036038101906103599190611e61565b611389565b005b34801561036c57600080fd5b5061038760048036038101906103829190611f58565b611503565b005b34801561039557600080fd5b506103b060048036038101906103ab9190611fcc565b611833565b6040516103bd9190611a89565b60405180910390f35b600181815481106103d657600080fd5b906000526020600020016000915054906101000a900473ffffffffffffffffffffffffffffffffffffffff1681565b6000803373ffffffffffffffffffffffffffffffffffffffff1673ffffffffffffffffffffffffffffffffffffffff16815260200190815260200160002060009054906101000a900460ff16610490576040517f08c379a000000000000000000000000000000000000000000000000000000000815260040161048790612058565b60405180910390fd5b6000808273ffffffffffffffffffffffffffffffffffffffff1673ffffffffffffffffffffffffffffffffffffffff16815260200190815260200160002060009054906101000a900460ff1661051b576040517f08c379a0000000000000000000000000000000000000000000000000000000008152600401610512906120c4565b60405180910390fd5b6001808054905011610562576040517f08c379a000000000000000000000000000000000000000000000000000000000815260040161055990612130565b60405180910390fd5b3373ffffffffffffffffffffffffffffffffffffffff168173ffffffffffffffffffffffffffffffffffffffff16036105d0576040517f08c379a00000000000000000000000000000000000000000000000000000000081526004016105c79061219c565b60405180910390fd5b60008060008373ffffffffffffffffffffffffffffffffffffffff1673ffffffffffffffffffffffffffffffffffffffff16815260200190815260200160002060006101000a81548160ff02191690831515021790555060005b6001805490508110156107ab578173ffffffffffffffffffffffffffffffffffffffff1660018281548110610662576106616121bc565b5b9060005260206000200160009054906101000a900473ffffffffffffffffffffffffffffffffffffffff1673ffffffffffffffffffffffffffffffffffffffff160361079e5760018080805490506106ba919061221a565b815481106106cb576106ca6121bc565b5b9060005260206000200160009054906101000a900473ffffffffffffffffffffffffffffffffffffffff166001828154811061070a576107096121bc565b5b9060005260206000200160006101000a81548173ffffffffffffffffffffffffffffffffffffffff021916908373ffffffffffffffffffffffffffffffffffffffff16021790555060018054806107645761076361224e565b5b6001900381819060005260206000200160006101000a81549073ffffffffffffffffffffffffffffffffffffffff021916905590556107ab565b808060010191505061062a565b508073ffffffffffffffffffffffffffffffffffffffff167fa3b62bc36326052d97ea62d63c3d60308ed4c3ea8ac079dd8499f1e9c4f80c0f60405160405180910390a250565b6060600180548060200260200160405190810160405280929190818152602001828054801561087657602002820191906000526020600020905b8160009054906101000a900473ffffffffffffffffffffffffffffffffffffffff1673ffffffffffffffffffffffffffffffffffffffff168152602001906001019080831161082c575b5050505050905090565b60006020528060005260406000206000915054906101000a900460ff1681565b600560003373ffffffffffffffffffffffffffffffffffffffff1673ffffffffffffffffffffffffffffffffffffffff168152602001908152602001600020600083815260200190815260200160002060009054906101000a900460ff1661093d576040517f08c379a0000000000000000000000000000000000000000000000000000000008152600401610934906122c9565b60405180910390fd5b60036000815480929190610950906122e9565b91905055506040518060e0016040528060035481526020013373ffffffffffffffffffffffffffffffffffffffff168152602001838152602001828152602001600015158152602001600015158152602001604051806020016040528060008152508152506006600060035481526020019081526020016000206000820151816000015560208201518160010160006101000a81548173ffffffffffffffffffffffffffffffffffffffff021916908373ffffffffffffffffffffffffffffffffffffffff160217905550604082015181600201556060820151816003019081610a3a919061253d565b5060808201518160040160006101000a81548160ff02191690831515021790555060a08201518160040160016101000a81548160ff02191690831515021790555060c0820151816005019081610a90919061253d565b509050507f01bc0f9d4f6b0c66e2bda5f433d9760d7eb48e89b73ffea517a7ba5e4fe0657d6003543384604051610ac99392919061260f565b60405180910390a15050565b6000803373ffffffffffffffffffffffffffffffffffffffff1673ffffffffffffffffffffffffffffffffffffffff16815260200190815260200160002060009054906101000a900460ff16610b60576040517f08c379a0000000000000000000000000000000000000000000000000000000008152600401610b5790612058565b60405180910390fd5b6000808273ffffffffffffffffffffffffffffffffffffffff1673ffffffffffffffffffffffffffffffffffffffff16815260200190815260200160002060009054906101000a900460ff1615610bec576040517f08c379a0000000000000000000000000000000000000000000000000000000008152600401610be390612692565b60405180910390fd5b60016000808373ffffffffffffffffffffffffffffffffffffffff1673ffffffffffffffffffffffffffffffffffffffff16815260200190815260200160002060006101000a81548160ff0219169083151502179055506001819080600181540180825580915050600190039060005260206000200160009091909190916101000a81548173ffffffffffffffffffffffffffffffffffffffff021916908373ffffffffffffffffffffffffffffffffffffffff1602179055508073ffffffffffffffffffffffffffffffffffffffff167f44d6d25963f097ad14f29f06854a01f575648a1ef82f30e562ccd3889717e33960405160405180910390a250565b6000600460008381526020019081526020016000206040518060a001604052908160008201548152602001600182018054610d2690612360565b80601f0160208091040260200160405190810160405280929190818152602001828054610d5290612360565b8015610d9f5780601f10610d7457610100808354040283529160200191610d9f565b820191906000526020600020905b815481529060010190602001808311610d8257829003601f168201915b5050505050815260200160028201548152602001600382015481526020016004820160009054906101000a900460ff16151515158152505090508060800151610e1d576040517f08c379a0000000000000000000000000000000000000000000000000000000008152600401610e14906126fe565b60405180910390fd5b80604001513414610e63576040517f08c379a0000000000000000000000000000000000000000000000000000000008152600401610e5a9061276a565b60405180910390fd5b600560003373ffffffffffffffffffffffffffffffffffffffff1673ffffffffffffffffffffffffffffffffffffffff168152602001908152602001600020600083815260200190815260200160002060009054906101000a900460ff1615610f01576040517f08c379a0000000000000000000000000000000000000000000000000000000008152600401610ef8906127d6565b60405180910390fd5b6001600560003373ffffffffffffffffffffffffffffffffffffffff1673ffffffffffffffffffffffffffffffffffffffff168152602001908152602001600020600084815260200190815260200160002060006101000a81548160ff0219169083151502179055507f1ec6ca237cf412015f109db027dc71b2292a20387279781fd699c4ec328a23d73383604051610f9b9291906127f6565b60405180910390a15050565b60035481565b60066020528060005260406000206000915090508060000154908060010160009054906101000a900473ffffffffffffffffffffffffffffffffffffffff169080600201549080600301805461100290612360565b80601f016020809104026020016040519081016040528092919081815260200182805461102e90612360565b801561107b5780601f106110505761010080835404028352916020019161107b565b820191906000526020600020905b81548152906001019060200180831161105e57829003601f168201915b5050505050908060040160009054906101000a900460ff16908060040160019054906101000a900460ff16908060050180546110b690612360565b80601f01602080910402602001604051908101604052809291908181526020018280546110e290612360565b801561112f5780601f106111045761010080835404028352916020019161112f565b820191906000526020600020905b81548152906001019060200180831161111257829003601f168201915b5050505050905087565b600460205280600052604060002060009150905080600001549080600101805461116290612360565b80601f016020809104026020016040519081016040528092919081815260200182805461118e90612360565b80156111db5780601f106111b0576101008083540402835291602001916111db565b820191906000526020600020905b8154815290600101906020018083116111be57829003601f168201915b5050505050908060020154908060030154908060040160009054906101000a900460ff16905085565b60025481565b6000803373ffffffffffffffffffffffffffffffffffffffff1673ffffffffffffffffffffffffffffffffffffffff16815260200190815260200160002060009054906101000a900460ff16611295576040517f08c379a000000000000000000000000000000000000000000000000000000000815260040161128c90612058565b60405180910390fd5b600260008154809291906112a8906122e9565b91905055506040518060a0016040528060025481526020018481526020018381526020018281526020016001151581525060046000600254815260200190815260200160002060008201518160000155602082015181600101908161130d919061253d565b50604082015181600201556060820151816003015560808201518160040160006101000a81548160ff0219169083151502179055509050507fe09f2648d20de4fe12f6cee742e78adc038dabec17e470b29235213d6fa7169c60025484848460405161137c949392919061281f565b60405180910390a1505050565b6000803373ffffffffffffffffffffffffffffffffffffffff1673ffffffffffffffffffffffffffffffffffffffff16815260200190815260200160002060009054906101000a900460ff16611414576040517f08c379a000000000000000000000000000000000000000000000000000000000815260040161140b90612058565b60405180910390fd5b60008511801561142657506002548511155b611465576040517f08c379a000000000000000000000000000000000000000000000000000000000815260040161145c906128b7565b60405180910390fd5b60006004600087815260200190815260200160002090508481600101908161148d919061253d565b50838160020181905550828160030181905550818160040160006101000a81548160ff0219169083151502179055507f77cb25eb64ea07bcfa584bd3639eaa3c081c238f73f8598a6b53ae549064aab186868686866040516114f3959493929190611d6c565b60405180910390a1505050505050565b6000803373ffffffffffffffffffffffffffffffffffffffff1673ffffffffffffffffffffffffffffffffffffffff16815260200190815260200160002060009054906101000a900460ff1661158e576040517f08c379a000000000000000000000000000000000000000000000000000000000815260040161158590612058565b60405180910390fd5b60006006600086815260200190815260200160002090508060040160019054906101000a900460ff16156115f7576040517f08c379a00000000000000000000000000000000000000000000000000000000081526004016115ee90612923565b60405180910390fd5b60018160040160016101000a81548160ff021916908315150217905550838160040160006101000a81548160ff021916908315150217905550828282600501918261164392919061294e565b5083156117f357600060046000836002015481526020019081526020016000206040518060a00160405290816000820154815260200160018201805461168890612360565b80601f01602080910402602001604051908101604052809291908181526020018280546116b490612360565b80156117015780601f106116d657610100808354040283529160200191611701565b820191906000526020600020905b8154815290600101906020018083116116e457829003601f168201915b5050505050815260200160028201548152602001600382015481526020016004820160009054906101000a900460ff16151515158152505090508060600151471015611782576040517f08c379a000000000000000000000000000000000000000000000000000000000815260040161177990612a6a565b60405180910390fd5b8160010160009054906101000a900473ffffffffffffffffffffffffffffffffffffffff1673ffffffffffffffffffffffffffffffffffffffff166108fc82606001519081150290604051600060405180830381858888f193505050501580156117f0573d6000803e3d6000fd5b50505b7fb96a745cc9b77f50219b8e380073ef1912e87ae66ce099a72ce1029259093ff18585604051611824929190612a8a565b60405180910390a15050505050565b60056020528160005260406000206020528060005260406000206000915091509054906101000a900460ff1681565b6000604051905090565b600080fd5b600080fd5b6000819050919050565b61188981611876565b811461189457600080fd5b50565b6000813590506118a681611880565b92915050565b6000602082840312156118c2576118c161186c565b5b60006118d084828501611897565b91505092915050565b600073ffffffffffffffffffffffffffffffffffffffff82169050919050565b6000611904826118d9565b9050919050565b611914816118f9565b82525050565b600060208201905061192f600083018461190b565b92915050565b61193e816118f9565b811461194957600080fd5b50565b60008135905061195b81611935565b92915050565b6000602082840312156119775761197661186c565b5b60006119858482850161194c565b91505092915050565b600081519050919050565b600082825260208201905092915050565b6000819050602082019050919050565b6119c3816118f9565b82525050565b60006119d583836119ba565b60208301905092915050565b6000602082019050919050565b60006119f98261198e565b611a038185611999565b9350611a0e836119aa565b8060005b83811015611a3f578151611a2688826119c9565b9750611a31836119e1565b925050600181019050611a12565b5085935050505092915050565b60006020820190508181036000830152611a6681846119ee565b905092915050565b60008115159050919050565b611a8381611a6e565b82525050565b6000602082019050611a9e6000830184611a7a565b92915050565b600080fd5b600080fd5b6000601f19601f8301169050919050565b7f4e487b7100000000000000000000000000000000000000000000000000000000600052604160045260246000fd5b611af782611aae565b810181811067ffffffffffffffff82111715611b1657611b15611abf565b5b80604052505050565b6000611b29611862565b9050611b358282611aee565b919050565b600067ffffffffffffffff821115611b5557611b54611abf565b5b611b5e82611aae565b9050602081019050919050565b82818337600083830152505050565b6000611b8d611b8884611b3a565b611b1f565b905082815260208101848484011115611ba957611ba8611aa9565b5b611bb4848285611b6b565b509392505050565b600082601f830112611bd157611bd0611aa4565b5b8135611be1848260208601611b7a565b91505092915050565b60008060408385031215611c0157611c0061186c565b5b6000611c0f85828601611897565b925050602083013567ffffffffffffffff811115611c3057611c2f611871565b5b611c3c85828601611bbc565b9150509250929050565b611c4f81611876565b82525050565b6000602082019050611c6a6000830184611c46565b92915050565b600081519050919050565b600082825260208201905092915050565b60005b83811015611caa578082015181840152602081019050611c8f565b60008484015250505050565b6000611cc182611c70565b611ccb8185611c7b565b9350611cdb818560208601611c8c565b611ce481611aae565b840191505092915050565b600060e082019050611d04600083018a611c46565b611d11602083018961190b565b611d1e6040830188611c46565b8181036060830152611d308187611cb6565b9050611d3f6080830186611a7a565b611d4c60a0830185611a7a565b81810360c0830152611d5e8184611cb6565b905098975050505050505050565b600060a082019050611d816000830188611c46565b8181036020830152611d938187611cb6565b9050611da26040830186611c46565b611daf6060830185611c46565b611dbc6080830184611a7a565b9695505050505050565b600080600060608486031215611ddf57611dde61186c565b5b600084013567ffffffffffffffff811115611dfd57611dfc611871565b5b611e0986828701611bbc565b9350506020611e1a86828701611897565b9250506040611e2b86828701611897565b9150509250925092565b611e3e81611a6e565b8114611e4957600080fd5b50565b600081359050611e5b81611e35565b92915050565b600080600080600060a08688031215611e7d57611e7c61186c565b5b6000611e8b88828901611897565b955050602086013567ffffffffffffffff811115611eac57611eab611871565b5b611eb888828901611bbc565b9450506040611ec988828901611897565b9350506060611eda88828901611897565b9250506080611eeb88828901611e4c565b9150509295509295909350565b600080fd5b600080fd5b60008083601f840112611f1857611f17611aa4565b5b8235905067ffffffffffffffff811115611f3557611f34611ef8565b5b602083019150836001820283011115611f5157611f50611efd565b5b9250929050565b60008060008060608587031215611f7257611f7161186c565b5b6000611f8087828801611897565b9450506020611f9187828801611e4c565b935050604085013567ffffffffffffffff811115611fb257611fb1611871565b5b611fbe87828801611f02565b925092505092959194509250565b60008060408385031215611fe357611fe261186c565b5b6000611ff18582860161194c565b925050602061200285828601611897565b9150509250929050565b7f4f6e6c792061646d696e2063616e2063616c6c20746869730000000000000000600082015250565b6000612042601883611c7b565b915061204d8261200c565b602082019050919050565b6000602082019050818103600083015261207181612035565b9050919050565b7f4e6f7420616e2061646d696e0000000000000000000000000000000000000000600082015250565b60006120ae600c83611c7b565b91506120b982612078565b602082019050919050565b600060208201905081810360008301526120dd816120a1565b9050919050565b7f43616e6e6f742072656d6f766520746865206c6173742061646d696e00000000600082015250565b600061211a601c83611c7b565b9150612125826120e4565b602082019050919050565b600060208201905081810360008301526121498161210d565b9050919050565b7f43616e6e6f742072656d6f766520796f757273656c6600000000000000000000600082015250565b6000612186601683611c7b565b915061219182612150565b602082019050919050565b600060208201905081810360008301526121b581612179565b9050919050565b7f4e487b7100000000000000000000000000000000000000000000000000000000600052603260045260246000fd5b7f4e487b7100000000000000000000000000000000000000000000000000000000600052601160045260246000fd5b600061222582611876565b915061223083611876565b9250828203905081811115612248576122476121eb565b5b92915050565b7f4e487b7100000000000000000000000000000000000000000000000000000000600052603160045260246000fd5b7f596f7520646f6e2774206f776e207468697320706f6c69637900000000000000600082015250565b60006122b3601983611c7b565b91506122be8261227d565b602082019050919050565b600060208201905081810360008301526122e2816122a6565b9050919050565b60006122f482611876565b91507fffffffffffffffffffffffffffffffffffffffffffffffffffffffffffffffff8203612326576123256121eb565b5b600182019050919050565b7f4e487b7100000000000000000000000000000000000000000000000000000000600052602260045260246000fd5b6000600282049050600182168061237857607f821691505b60208210810361238b5761238a612331565b5b50919050565b60008190508160005260206000209050919050565b60006020601f8301049050919050565b600082821b905092915050565b6000600883026123f37fffffffffffffffffffffffffffffffffffffffffffffffffffffffffffffffff826123b6565b6123fd86836123b6565b95508019841693508086168417925050509392505050565b6000819050919050565b600061243a61243561243084611876565b612415565b611876565b9050919050565b6000819050919050565b6124548361241f565b61246861246082612441565b8484546123c3565b825550505050565b600090565b61247d612470565b61248881848461244b565b505050565b5b818110156124ac576124a1600082612475565b60018101905061248e565b5050565b601f8211156124f1576124c281612391565b6124cb846123a6565b810160208510156124da578190505b6124ee6124e6856123a6565b83018261248d565b50505b505050565b600082821c905092915050565b6000612514600019846008026124f6565b1980831691505092915050565b600061252d8383612503565b9150826002028217905092915050565b61254682611c70565b67ffffffffffffffff81111561255f5761255e611abf565b5b6125698254612360565b6125748282856124b0565b600060209050601f8311600181146125a75760008415612595578287015190505b61259f8582612521565b865550612607565b601f1984166125b586612391565b60005b828110156125dd578489015182556001820191506020850194506020810190506125b8565b868310156125fa57848901516125f6601f891682612503565b8355505b6001600288020188555050505b505050505050565b60006060820190506126246000830186611c46565b612631602083018561190b565b61263e6040830184611c46565b949350505050565b7f416c726561647920616e2061646d696e00000000000000000000000000000000600082015250565b600061267c601083611c7b565b915061268782612646565b602082019050919050565b600060208201905081810360008301526126ab8161266f565b9050919050565b7f506f6c696379206973206e6f7420616374697665000000000000000000000000600082015250565b60006126e8601483611c7b565b91506126f3826126b2565b602082019050919050565b60006020820190508181036000830152612717816126db565b9050919050565b7f496e636f7272656374207072656d69756d20616d6f756e740000000000000000600082015250565b6000612754601883611c7b565b915061275f8261271e565b602082019050919050565b6000602082019050818103600083015261278381612747565b9050919050565b7f416c72656164792068617665207468697320706f6c6963790000000000000000600082015250565b60006127c0601883611c7b565b91506127cb8261278a565b602082019050919050565b600060208201905081810360008301526127ef816127b3565b9050919050565b600060408201905061280b600083018561190b565b6128186020830184611c46565b9392505050565b60006080820190506128346000830187611c46565b81810360208301526128468186611cb6565b90506128556040830185611c46565b6128626060830184611c46565b95945050505050565b7f496e76616c696420706f6c696379204944000000000000000000000000000000600082015250565b60006128a1601183611c7b565b91506128ac8261286b565b602082019050919050565b600060208201905081810360008301526128d081612894565b9050919050565b7f436c61696d20616c7265616479207265736f6c76656400000000000000000000600082015250565b600061290d601683611c7b565b9150612918826128d7565b602082019050919050565b6000602082019050818103600083015261293c81612900565b9050919050565b600082905092915050565b6129588383612943565b67ffffffffffffffff81111561297157612970611abf565b5b61297b8254612360565b6129868282856124b0565b6000601f8311600181146129b557600084156129a3578287013590505b6129ad8582612521565b865550612a15565b601f1984166129c386612391565b60005b828110156129eb578489013582556001820191506020850194506020810190506129c6565b86831015612a085784890135612a04601f891682612503565b8355505b6001600288020188555050505b50505050505050565b7f4e6f7420656e6f7567682066756e647320696e20636f6e747261637400000000600082015250565b6000612a54601c83611c7b565b9150612a5f82612a1e565b602082019050919050565b60006020820190508181036000830152612a8381612a47565b9050919050565b6000604082019050612a9f6000830185611c46565b612aac6020830184611a7a565b939250505056fea26469706673582212204084d40e9f9bd109af9624937eba940c038708179bed6f840aba4b328c4dedc464736f6c63430008180033",
  "linkReferences": {},
  "deployedLinkReferences": {}
}